:020000040800F2
:10000000E8060020650100085D11000807100008DF
:1000100000000000000000000000000000000000E0
:100020000000000000000000000000006111000856
:1000300000000000000000005F11000863110008CC
:1000400077010008770100087701000877010008B0
:1000500077010008770100087701000877010008A0
:100060000000000077010008770100087701000810
:10007000770100087701000877010008C91100081E
:100080007701000877010008770100087701000870
:1000900000000000770100087701000877010008E0
:1000A0007701000877010008770100087701000850
:1000B0007701000877010008000000000000000040
:1000C00000F002F800F03EF80CA030C80838241800
:1000D0002D18A246671EAB4654465D46AC4201D180
:1000E00000F030F87E460F3E0FCCB6460126334274
:1000F00000D0FB1AA246AB4633431847D015000088
:10010000F0150000103A02D378C878C1FAD8520727
:1001100001D330C830C101D504680C6070470000BD
:100120000023002400250026103A01D378C1FBD813
:10013000520700D330C100D50B6070471FB51FBDFB
:1001400010B510BD00F0FAF81146FFF7F7FF01F007
:10015000E9F800F012F903B4FFF7F2FF03BC00F076
:1001600017F900000748804707480047FEE7FEE709
:10017000FEE7FEE7FEE7FEE704480549054A064BB1
:1001800070470000C5110008C1000008E800002009
:10019000E8060020E8020020E802002001E004C098
:1001A000091F0429FBD28B0701D50280801CC907D7
:1001B00000D00270704700290BD0C30702D0027034
:1001C000401C491E022904D3830702D50280801CEB
:1001D000891EE3E70022EEE70022DFE700220309A1
:1001E0008B422CD3030A8B4211D300239C464EE052
:1001F00003460B433CD4002243088B4231D303090E
:100200008B421CD3030A8B4201D394463FE0C309BF
:100210008B4201D3CB01C01A524183098B4201D3D7
:100220008B01C01A524143098B4201D34B01C01AC2
:10023000524103098B4201D30B01C01A5241C3083A
:100240008B4201D3CB00C01A524183088B4201D3A9
:100250008B00C01A524143088B4201D34B00C01A95
:100260005241411A00D201465241104670475DE0AA
:10027000CA0F00D04942031000D34042534000222D
:100280009C4603098B422DD3030A8B4212D3FC22D6
:10029000890112BA030A8B420CD3890192118B4255
:1002A00008D3890192118B4204D389013AD092116B
:1002B00000E08909C3098B4201D3CB01C01A524126
:1002C00083098B4201D38B01C01A524143098B42EF
:1002D00001D34B01C01A524103098B4201D30B01D8
:1002E000C01A5241C3088B4201D3CB00C01A5241FD
:1002F00083088B4201D38B00C01A5241D9D24308E4
:100300008B4201D34B00C01A5241411A00D2014620
:10031000634652415B10104601D34042002B00D58A
:100320004942704763465B1000D3404201B500204C
:10033000C046C04602BD704770477047754600F022
:1003400023F8AE46050069465346C008C0008546FE
:1003500018B020B5FFF710FF60BC00274908B6466B
:100360000026C0C5C0C5C0C5C0C5C0C5C0C5C0C5C4
:10037000C0C5403D49008D4670470446C046C04652
:100380002046FFF7E8FE0000004870478800002084
:1003900001491820ABBEFEE726000200704772B686
:1003A000FEE7000070B5044600F0C8F80546601C82
:1003B00002D004480078241800F0C0F8401BA04286
:1003C000FAD370BD2C000020F0B5002303249AE07E
:1003D0002A4601259D402A407ED00E79B607B60FE9
:1003E000012E01D0022E16D186682746B4465E0043
:1003F000B646B7406646BE43B446CF687646B74079
:100400006646374387604668AE430D79ED06ED0FCB
:100410009D40354345600D79ED43AD0708D0C56873
:100420005F002646BE40B5438E68BE402E43C66080
:100430000D79AD07AD0F022D0ED1DD08AD002D18E1
:10044000AC462D6A5E07F60E0F27B740BD430F6915
:10045000B7402F4365462F6205685F002646BE40C1
:10046000B5430E79B607B60FBE402E4306604D6801
:10047000AD03AD0F46D09E08264DB6007519AC46AB
:100480002D6E9E07F60E0F27B740BD4305273F0789
:10049000B84201D100270FE01F4FB84201D1012718
:1004A0000AE01E4FB84201D1022705E01C4FB842B6
:1004B00001D1032700E00527B7402F43154D6646BD
:1004C00037662D684E689543F60200D51543114FE7
:1004D0003D607D68954300E014E04E68B60200D5AB
:1004E00015437D600B4D80356E684F689643BF03A2
:1004F00000D516436E602E684F689643FF0300D503
:1005000016432E605B1C0A681546DA4000D05FE790
:10051000F0BD000000180240000400500008005028
:10052000000C00500069084000D001207047002AEC
:1005300001D0816170478162704700000148806886
:10054000704700002C00002002488168027889185A
:10055000816070472C00002010B508480024016815
:10056000821511430160032000F00AF8002801D031
:10057000012401E000F028F8204610BD00200240D0
:1005800070B50F4E002431780546002915D07D2026
:10059000C000FFF723FE01460A480068FFF71EFE71
:1005A00000F044FB002808D1042D06D20022294681
:1005B000401E00F02BF8756000E00124204670BD5D
:1005C0002C0000203800002008B5094801680122ED
:1005D0001143016000681040009005484038C26B2C
:1005E00001040A43C263C06B0840009008BD0000CC
:1005F00040100240002805DBC106C90E01208840DA
:10060000014908607047000000E100E010B500F00B
:1006100067FE10BD10B50F4C2168032252029143B2
:1006200001432160C11FFF39FA390ED10A48062162
:10063000006848430949FFF7D1FD401C02E000284B
:1006400005D0401E61694905F9D4002010BD032082
:1006500010BD0000007000403800002040420F0034
:10066000F8B50F46060043D04D4D28684007400FAF
:10067000B84213D22868C008C00038432860FFF78A
:100680005DFF044605E0FFF759FF011B4548814225
:1006900061D828684007400FB842F4D13068424C16
:1006A00081070DD5400704D5A06807210903084339
:1006B000A060A0680F2109028843B1680843A060C8
:1006C0003078C00732D0706801280AD002280BD0D9
:1006D00000280FD03449403103280ED0C96989075A
:1006E00004E02168890301E021688901002906DB13
:1006F0000120F8BD21684905F8E7096AEFE7A1681C
:10070000C908C9000143A160FFF718FF009006E087
:10071000FFF714FF0099411A224881421BD8A068B4
:10072000382108407168C9008842F1D12868400723
:10073000400FB84217D91A480168C908C90039439F
:100740000160FFF7FBFE054607E0FFF7F7FE411BE0
:100750001448814201D90320F8BD114800684007C0
:10076000400FB842F1D13078400706D5A068072184
:1007700009038843F1680843A06000F01DF8A168F0
:100780003C2289091140094A515CC906C90EC8407A
:100790000749086007480068FFF7F2FEF8BD00004F
:1007A0000020024088130000001002408C16000850
:1007B000380000203000002010B5204CA068204AEE
:1007C0008006400F16D0A0688006410F5010012906
:1007D0000FD0A1688906490F022912D0A0688006AF
:1007E000400F042823D0A0688006400F032821D0A2
:1007F000002010BD206801218004400F8140104678
:1008000012E0E1688B07E1689B0F4906490F491C1C
:10081000032B00D01046FFF7E1FCE1684904490EC4
:100820004843E168490F491CFFF7D8FC10BD01207F
:10083000C00310BD7D20000210BD0000001002406A
:100840000024F400F8B504007ED020783827C007D3
:10085000ED4D002846D0A868E96838408907890F1F
:10086000102802D008280BD001E0032908D001206D
:100870006268000482420AD129680143296015E0B8
:10088000286880032ED560680028DDD02AE0052383
:1008900001211B0489049A422A6802D10A432A6072
:1008A000EAE782432A602868884328606068002855
:1008B0000CD0FFF743FE064604E0FFF73FFE801B27
:1008C000642873D828688003F7D50BE0FFF736FE5D
:1008D000064604E0FFF732FE801B6428F1D8286842
:1008E0008003F7D42078800769D5A868E968384084
:1008F0008A070721920FC902102802D0002813D0BE
:1009000001E0022A10D0E068002846D02868884319
:100910002169084328602868FF21013108432860C5
:10092000FFF70CFE06462CE02A68520502D5E26865
:10093000002A89D06A687F231B029A4363691B02DD
:100940001A436A60002800E08DE00ED128688843D1
:10095000216908432860286801218004400F8140F4
:10096000AA48FFF73BFCAA490860AA480068FFF7BD
:1009700007FE002877D122E0FFF7E0FD801B022868
:100980009FD828684005F7D568687F210902884309
:10099000616909020843686011E02968FF2001309D
:1009A00081432960FFF7CAFD064605E098E0FFF79E
:1009B000C5FD801B022884D828684005F7D420781C
:1009C000954E00072ED5A8688006400F03280AD050
:1009D000A0690028306A16D0012108433062FFF771
:1009E000ADFD07460BE0306A80071BD5A0690028E3
:1009F0009FD017E0FFF7A2FDC01B022870D8306A15
:100A00008007F7D50EE0400840003062FFF796FD02
:100A1000074604E0FFF792FDC01B022860D8306A49
:100A20008007F7D4207840076CD5A8680027800697
:100A3000400F042818D0E86BC00008D4E96B0120EF
:100A400000070143E963E96B014001270091734806
:100A50000168C90519D40168821511430160FFF7C7
:100A60006DFD00900DE083E0F06980074AD5A06835
:100A700000287DD046E0FFF761FD0099401A02286A
:100A80002ED866480068C005F5D5A168012910D0A8
:100A900004200529F16911D049084900F161F16983
:100AA0008143F161A068002816D0FFF747FD009050
:100AB0000EE0F06901210843F061F3E70143F161C1
:100AC000F7E7FFF73BFD0099411A5548814267D887
:100AD000F0698007F5D50EE0FFF730FD009007E0E4
:100AE0005EE0FFF72BFD0099411A4D48814257D82F
:100AF000F0698007F5D4002F04D0E86B01210907C5
:100B00008843E863E06900287BD0A9688906490F1B
:100B100002294FD0012636060228286805D0B043A6
:100B20002860FFF70BFD04463CE0B0432860FFF768
:100B300005FD074604E0FFF701FDC01B02282FD882
:100B400028688001F7D4616A206AA26A0843E16AD2
:100B5000120211430843216B0843616B0843E968A3
:100B6000304A11400843E86028683043286000E0BC
:100B700045E0E868012109070843E860FFF7DEFC6B
:100B8000044604E0FFF7DAFC001B022808D82868B6
:100B90008001F7D535E0FFF7D1FC001B022801D911
:100BA0000320F8BD28688001F5D4E8681E49084094
:100BB000E86026E00128F4D0E868226A8107890FFE
:100BC00091421CD17021626A0140914217D17F216C
:100BD000A26A090201401202914210D11F21490468
:100BE000E26A014091420AD107214906226B014085
:100BF000914204D1400F616B4007884201D001202F
:100C0000F8BD0020F8BD0000001002400024F400F0
:100C100038000020300000204010024000700040EA
:100C2000881300008C80C111FCFFFEEE094910B54D
:100C3000401E884201D9012010BD074C606103218C
:100C4000081F00F04DFB0020A0610720206100205C
:100C500010BD0000FFFFFF0000E000E0704770479C
:100C600070470000F0B5034620331A7F012A28D0D0
:100C700001221A7702225A7704686268A568124F27
:100C8000BC4205D116460F22120596434A683243EC
:100C90007026B2430E68164366600068B84206D0FC
:100CA00001229207904202D0084A904204D1802249
:100CB000896895432943816001205877002018777F
:100CC000F0BD0220F0BD0000002C014000040040F7
:100CD00070B5040005D025462035687F002802D075
:100CE00006E0012070BD00202877204600F016F8AD
:100CF00002206877211D206800F06EFA012240343E
:100D00002272AA77EA7722706270A270E270227172
:100D10006271A271E2716A77002070BD08B5006847
:100D20000121890788420FD10848C16B0122114374
:100D3000C163C06B10400022009011460F20FFF7E6
:100D400065FC0F20FFF756FC08BD000000100240B4
:100D5000014620314A7F012A01D00120704702223A
:100D60004A770168CB6801221343CB6000680B49C6
:100D7000884205D09107884202D00949884207D1AC
:100D80008168084B1940062905D0DB1F994202D023
:100D9000016811430160002070470000002C0140F1
:100DA0000004004007000100F8B505460446203560
:100DB000287F0026012817D001272F770220687787
:100DC000226890682F4B1840FF231B0298439060C5
:100DD0000868502838D00EDC20284FD006DC0028C8
:100DE0004CD010281ED149E00220F8BD302845D053
:100DF000402817D13AE060282ED0702818D0012260
:100E00001203801A0FD090420CD1CB684A688968CF
:100E1000206800F02BFA20688168012292031143B8
:100E2000816000E001266F77002028773046F8BD0A
:100E3000CB684A688968206800F018FA21688868D9
:100E4000772210438860EEE7CA684968206800F09E
:100E500023FA5021206806E0CA684968206800F03B
:100E60002CFA6021206800F00DFADCE7CA684968B6
:100E7000206800F011FA40212068F4E7226801465A
:100E80001046F0E788FFCEFF70470000F8B5044633
:100E90000068C66805690027A907002913DAB107A9
:100EA00011D5F91E01610120207720688069800733
:100EB000204602D0FFF7E8FF04E000F08BF8204660
:100EC00000F089F82777680716D5700714D5042035
:100ED0002168C0430861022020772068806980056E
:100EE000800F204602D0FFF7CFFF04E000F072F839
:100EF000204600F070F82777280715D5300713D55E
:100F000008202168C0430861042020772068C06958
:100F10008007204602D0FFF7B7FF04E000F05AF840
:100F2000204600F058F82777E80616D5F00614D5C5
:100F300010202168C0430861082020772068C0691C
:100F40008005800F204602D0FFF79EFF04E000F0EE
:100F500041F8204600F03FF82777E80708D0F0076F
:100F600006D001202168C0430861204600F034F813
:100F7000280601D4A80407D5300605D521681348F2
:100F800008612046FFF76BFEE80507D5300605D55A
:100F900021680F4808612046FFF760FE680608D503
:100FA000700606D540202168C0430861204600F045
:100FB00029F8A80608D5B00606D520202168C04328
:100FC00008612046FFF74CFEF8BD00007FDFFFFF01
:100FD000FFFEFFFF704770470068012189078842C4
:100FE0000CD107487D224168D2000A31416091420C
:100FF00004DB002141600168491C0160704700006A
:10100000240000207047FEE7F0B587B01421684641
:10101000FFF7E2F83248416B012529434163416BF8
:1010200029400591416B022631434163416B3140B8
:101030000591426B04210A434263406B0122084040
:1010400005900520E0210007FFF771FA00221A2120
:101050002448FFF76CFA19273F0205200022394681
:101060000007FFF764FA002240211F48FFF75FFAEC
:101070000024052001946946000700950294FFF7BB
:10108000A3F9E0200090052001956946029503949C
:101090000007FFF799F902946946124800960195F6
:1010A0000394FFF791F90520029469460007009721
:1010B00001950394FFF788F9402000900294694657
:1010C000019503940848FFF77FF9182000900195D7
:1010D0006946029503940348FFF776F907B0F0BD1F
:1010E00000100240000400500008005010B588B005
:1010F000002400940194012116480294039404945E
:1011000005948907069401600F21846041601249AB
:101110000461C16080218161FFF7DAFD002801D000
:10112000FFF73DF901200003009069460948FFF7E9
:101130003BFE002801D0FFF732F9049404A90548CA
:101140000694FFF78FFD002801D0FFF728F908B0BB
:1011500010BD00003C000020E7030000FEE77047E0
:10116000704710B5FFF7F0F910BD10B592B03821F7
:101170006846FFF731F8002401200E940F94109474
:1011800040021194FFF746FA02200090C00103903C
:1011900040200590049407946846FFF753FB00280D
:1011A00001D072B6FEE707200E900F941094002134
:1011B00011940EA8FFF754FA002801D072B6FEE78A
:1011C00012B010BD7047000010B50248FFF75EFE78
:1011D00010BD00003C000020F0B502681E4B012449
:1011E000A4071E4D984203D0A04201D0A84203D1CB
:1011F0007026B2434E683243194E1A4F98420AD0B5
:10120000A04208D0A84206D0174CA04203D0B0425A
:1012100001D0B84204D103242402A243CC68224363
:101220008024A2434C69224302608A68C2620A6831
:101230008262984203D0B04201D0B84201D109691C
:101240000163012141610169C90703D001694908AE
:1012500049000161F0BD0000002C01400004004085
:1012600000440140004801400020004030B584683F
:10127000FF252D021B021343AC430B432343836022
:1012800030BD00008268034B1A400A4307210A431D
:10129000826070478FFFCFFF30B5036A046A64082D
:1012A000640004628469F025AC43120122430A24DD
:1012B000A3430B438261036230BD30B5046A036A05
:1012C0001025AB43036283690F252D031203AB4343
:1012D0001A43A0239C43090121438261016230BD6E
:1012E0008307FF22DB0E9A408907090E99400028E8
:1012F00008DB830809489B001B18186890430843C3
:10130000186070470007000F0838830804489B00E6
:101310001B18D86990430843D861704700E400E087
:1013200000ED00E0002586B02E462F460095019581
:10133000FFF712F9FFF719FFFFF766FEFFF7D6FE7A
:101340000024B648FFF704FDB54A02A81146203133
:1013500000F06CF9029800283ADD7D21C90048436D
:1013600003994018012833DD052001210007FFF70C
:10137000D9F800280FD0AA490020091F085E821E54
:10138000082A12D8002C19D0012C0AD0022C0AD01D
:10139000032C14D112E0A248001F0188491C0180CF
:1013A0000FE000240BE0032409E00F2807DD012CE7
:1013B00002D0022C03D101E0022400E0012400202D
:1013C000088097489649203002680A604068486063
:1013D000002C11D0012C5DD0022C7DD0032CB3D178
:1013E00001250026324629462846009500F02DF9B1
:1013F0000198002871D00DE1894A04A808321146ED
:10140000183100F013F9049800283FDD7D21C90050
:101410004843059941187D20C000814236DD002DEA
:1014200036D0002500200646014600903246284668
:1014300000F00BF9002202217A48FFF778F80A2021
:10144000FEF7B0FF0527FF213F0700220131384694
:10145000FFF76DF80A20FEF7A5FF01210022C9025F
:101460003846FFF764F80A20FEF79CFF002240216F
:101470006D48FFF75CF80A20FEF794FF68482030BB
:101480000146183902680A604068486000275BE737
:101490000125C7E701210520002209030007FFF706
:1014A00046F8002F35D10020064601250146009060
:1014B0003246284600F0C9F8C820FEF773FF012223
:1014C00040215948FFF733F80A20FEF76BFF01224D
:1014D000D10205273F0701E046E075E03846FFF7F7
:1014E00026F80A20FEF75EFF012211023846FFF7B8
:1014F0001EF80A20FEF756FF012202214948FFF795
:1015000016F80A20FEF74EFF002229033846FFF79F
:101510000EF8434A04A810321146103100F086F844
:10152000049800281CDD7D21C90048430599411815
:101530007D20C000814213DD00980025002811D0D5
:1015400000200026014600903246284600F07DF833
:10155000334820300146103902680A60406848600C
:1015600001272DE00120ECE70122052011030007EF
:10157000FEF7DDFF2A4A04A818321146083100F0B0
:1015800055F8049800281BDD7D21C90048430599C2
:1015900041187D20C000814212DD002528460095BB
:1015A000002E0FD0002601463246284600F04DF8A6
:1015B0001B492031084608380A68026049684160C2
:1015C000002028E00126EEE7012105200022090382
:1015D0000007FEF7ACFF012210211248FEF7A7FF1B
:1015E0003220FEF7DFFE012208210E48FEF79FFFA2
:1015F000FF20F530FEF7D6FE002208210948FEF74D
:1016000096FFFF20F530FEF7CDFE002210210548A1
:10161000FEF78DFF0120019096E600003C000020BF
:1016200004000020000400500008005010B50B68B2
:101630001468496852681B1B891A03D57D22D200A1
:1016400089185B1E0360416010BD70B50526360722
:1016500014460D46002801D0002200E0012220217E
:101660003046FEF764FF002D01D0002200E0012289
:1016700040213046FEF75BFF002C01D0002200E045
:10168000012280213046FEF752FF70BD00000000AD
:10169000000000000000000000000000000000004A
:1016A0000000000000000000000000000100000039
:1016B000020000000300000004000000060000001B
:1016C000070000000800000009000000EC160008F8
:1016D000000000203C00000004010008281700085A
:1016E0003C000020AC0600002001000800000000C3
:1016F00000000000000000000000000000000000EA
:1017000000000000000000000000000000000000D9
:1017100000000000000000000100000004000000C4
:08172000000000000024F400A9
:04000005080000C12E
:00000001FF
